:020000040800F2
:10000000B8090020D502000819230008552000086F
:1000100015230008CF050008952B000800000000FC
:1000200000000000000000000000000011020008B5
:10003000D3050008000000006D0200081D23000821
:10004000EF020008EF020008EF020008EF020008CC
:10005000EF020008EF020008EF020008EF020008BC
:10006000EF020008EF020008EF020008EF020008AC
:10007000EF020008EF020008EF020008EF0200089C
:10008000EF020008EF020008EF020008EF0200088C
:10009000EF020008EF020008EF020008EF0200087C
:1000A000EF020008EF020008EF020008EF0200086C
:1000B000EF020008EF020008EF020008EF0200085C
:1000C000EF020008EF020008EF020008EF0200084C
:1000D000EF020008EF020008EF020008EF0200083C
:1000E000EF020008EF020008EF020008EF0200082C
:1000F000EF020008EF020008EF020008EF0200081C
:10010000EF020008EF020008EF020008EF0200080B
:10011000EF020008EF020008EF020008EF020008FB
:10012000EF020008EF020008EF020008EF020008EB
:10013000EF020008EF020008EF020008EF020008DB
:10014000EF020008EF020008EF020008EF020008CB
:10015000EF020008EF020008EF020008EF020008BB
:10016000EF020008EF020008EF020008EF020008AB
:10017000EF020008EF020008EF0200080000000094
:10018000EF020008EF020008EF020008EF0200088B
:10019000EF020008EF020008EF020008EF0200087B
:1001A000EF020008EF020008EF020008EF0200086B
:1001B000EF020008EF020008EF020008EF0200085B
:1001C000EF020008EF02000800000000EF02000844
:1001D000EF020008EF020008EF020008EF0200083B
:1001E000EF020008EF020008EF020008EF0200082B
:1001F000EF020008EF020008DFF810D000F078F9F5
:100200000048004779300008AFF30080B8090020AB
:100210002D4B19680868B0E8F04F80F30988BFF3E8
:100220006F8F4FF0000080F31188704700000000CE
:1002300008480068006880F308884FF0000080F3E9
:10024000148862B661B6BFF34F8FBFF36F8F00DFC4
:1002500000BF00BF08ED00E0DFF80C00016841F4CA
:1002600070010160704700BF88ED00E0EFF3098086
:10027000BFF36F8F144B1A681EF0100F08BF20EDEC
:10028000108A20E9F04F106009B44FF0500072B6A8
:1002900080F31188BFF34F8FBFF36F8F62B603F007
:1002A00017F84FF0000080F3118809BC196808683E
:1002B000B0E8F04F1EF0100F08BFB0EC108A80F3CA
:1002C0000988BFF36F8F704740000020EFF305806F
:1002D000704700000648804706480047FEE7FEE7F3
:1002E000FEE7FEE7FEE7FEE7FEE7FEE7FEE7FEE7E6
:1002F00009240008F90100082DE9F05F05460020F7
:1003000092469B4688460646814640241BE0284686
:1003100041464746224600F053F853465A46C01A13
:10032000914110D311461846224600F03AF82D1A92
:1003300067EB01084F4622460120002100F031F80A
:1003400017EB00094E41201EA4F10104DFDC4846F2
:1003500031462A464346BDE8F09F40EA01039B0729
:1003600003D009E008C9121F08C0042AFAD203E02A
:1003700011F8013B00F8013B521EF9D27047D2B28E
:1003800001E000F8012B491EFBD270470022F6E77E
:1003900010B513460A4604461946FFF7F0FF2046FB
:1003A00010BD202A04DB203A00FA02F10020704739
:1003B0009140C2F1200320FA03F3194390407047A3
:1003C000202A04DB203A21FA02F00021704721FAAA
:1003D00002F3D040C2F12002914008431946704711
:1003E0002DE9F041054621F000400C46284309D094
:1003F000C4F30A5040F23341884205DD28462146C5
:10040000BDE8F0812846FBE740F2FE31884210DC6F
:100410000CDB4FEA043040EA155050EA053105D0B4
:10042000104804F0004101430020E9E700200146A4
:10043000E6E7A0F233404642C6F140022846214694
:10044000FFF7AFFF07468846284621463246FFF7AA
:10045000B7FF43463A4600F05DF83246BDE8F0414A
:10046000FFF79FBF0000F03F2DE9FE4FC3F30A578F
:1004700001F000450024C1F30A56C3F31303C1F38E
:10048000130143F4801312EB020AA64641F48011D3
:10049000009543EB030CA7F1010B16E0B0EB0A004B
:1004A00061EB0C01071E71F1000707DA4FF000083D
:1004B000D0EB080085F0004568EB0101171A73EBDB
:1004C0000107EBD3761E001849415E45F6DA50EA83
:1004D000010209D0CDE900E500221346029600F0A2
:1004E00028F803B0BDE8F08F20460099F9E7000036
:1004F000064C074D06E0E06840F0010394E8070071
:1005000098471034AC42F6D3FFF77AFEB0360008B5
:10051000D036000810B5141E73F1000408DA401C30
:1005200041F1000192185B411A4301D120F0010012
:1005300010BD2DE9F04D92469B4611B1B1FA81F202
:1005400002E0B0FA80F220329046FFF72AFF04461C
:100550000F4640EA0A0041EA0B0153465A46084357
:1005600013D0114653EA010019D0C8F14002504699
:10057000FFF726FF05460E46504659464246FFF70E
:1005800010FF084305D0012004E020463946BDE8AD
:10059000F08D0020054346EAE0762C4337430A9865
:1005A0006305E40AA0EB08000022FD0A44EA475470
:1005B0000A3002D500200146E9E70105101969411A
:1005C000DDE9084500196941BDE8F04DA2E700BF2B
:1005D000FEE7704772B600BFFEE7000070B5044644
:1005E00000F022F906462546681C10B10448007840
:1005F000054400BF00F018F9801BA842FAD370BD73
:1006000038000020F8B502460B46002100250024E2
:10061000002000BFE4E0012606FA01F51E6806EAA4
:100620000504AC4271D15E68012E08D05E68022ECE
:1006300005D05E68112E02D05E68122E13D190682C
:100640004F000326BE40B0434F00DE68BE4030433B
:100650009060506801268E40B0431E79C6F30016A4
:100660008E4030435060D0684F000326BE40B043F8
:100670004F009E68BE403043D0605E68022E02D0BC
:100680005E68122E13D1CF0802F1200656F827001B
:100690004E07F70E0F26BE40B0434F07FF0E1E69F0
:1006A000BE403043CF0802F1200646F8270010680C
:1006B0004F000326BE40B0431E7906F003064F00EC
:1006C000BE40304310605E6806F08056B6F1805F31
:1006D000A8D100BF444E366846F48046424F3E6083
:1006E0003E46366806F48046009600BF00BF3F4E87
:1006F0008F0856F827008E07370F0F26BE40B043ED
:100700003B4EB24202D100262EE068E0394EB242A2
:1007100001D1012628E0384EB24201D1022623E061
:10072000364EB24201D103261EE0354EB24201D10F
:10073000042619E0334EB24201D1052614E0324EB0
:10074000B24201D106260FE0304EB24201D1072657
:100750000AE02F4EB24201D1082605E02D4EB242EA
:1007600001D1092600E00A268F073F0FBE40304323
:100770001E4E8F0846F82700274E3068A0435E685B
:1007800006F48036B6F5803F00D12043224E30601B
:10079000361D3068A0435E6806F40036B6F5003FAB
:1007A00000D120431C4E361D3060361D3068A043FA
:1007B0005E6806F48016B6F5801F00D12043164E01
:1007C00008363060361D3068A0435E6806F40016B7
:1007D000B6F5001F00D120430F4E0C363060491C87
:1007E0001029FFF418AFF8BD443802400838014022
:1007F000000002400004024000080240000C0240D9
:10080000001002400014024000180240001C024088
:100810000020024000240240003C01400AB18161F6
:1008200001E00B04836170470148006870470000D5
:100830003000002003480068034909780844014952
:1008400008607047300000203800002010B50320F9
:1008500000F092F80F2000F005F800F029F80020D1
:1008600010BD000070B504460E4800784FF47A7150
:10087000B1FBF0F00C490968B1FBF0F5284601F036
:100880005FF908B1012070BD102C07D2002221466B
:10089000501E00F033F80548046001E00120F2E743
:1008A0000020F0E7380000203C0000203400002049
:1008B00008B500BF1048006840F080500E4908603D
:1008C0000846006800F08050009000BF00BF00BFE5
:1008D000081D006840F48040091D08600846006853
:1008E00000F48040009000BF00BF00220F21901E46
:1008F00000F004F808BD0000403802402DE9F05F28
:1009000080460D461646002702F066F9074639462E
:100910002A46334601F00700C0F1070ABAF1040F76
:1009200002D94FF0040A01E0C0F1070AD14600F1F4
:10093000040ABAF1070F02D24FF0000A01E0A0F159
:10094000030AD4464FF0010A0AFA09FAAAF1010A89
:100950000AEA020A0AFA0CFA4FF0010B0BFA0CFB36
:10096000ABF1010B0BEA030B4AEA0B0421464046AC
:1009700002F03AF9BDE8F09F00BF00F00702064B15
:1009800019684FF6FF031940044B0B4343EA022159
:10099000014B196000BF70470CED00E00000FA0544
:1009A00001460A680120C1F8FC03002081F8F40325
:1009B000906940F000609061506D024B18435065A3
:1009C000002070470300001070B58AB0044614B9C7
:1009D00001200AB070BD266894F8BD0328B9002034
:1009E00084F8BC03204600F0A9F8032084F8BD0376
:1009F000F06B00F4807008B900212161206802F0DA
:100A00006FF8282204F110016846FFF7A6FC94E86D
:100A10000F0001F0F7FE20B1022084F8BD03012091
:100A2000D7E70021206802F091F8002531E001218C
:100A3000C5EBC50204F13C0000EB82004170C5EB40
:100A4000C50104F13C0000F82150C5EBC50100EBE5
:100A50008100C5800021C5EBC50204F13C0000EB1C
:100A60008200C170C5EBC50204F13C0000EB8200BE
:100A70008160C5EBC50204F13C0000EB8200C1605F
:100A8000C5EBC50204F13C0000EB82004161681C2B
:100A9000C5B26068A842CAD800252AE00021C5EB8B
:100AA000C50204F5FE7000EB82004170C5EBC50184
:100AB00004F5FE7000F821500021C5EBC50200EBE3
:100AC0008200C170C5EBC50204F5FE7000EB820028
:100AD0008160C5EBC50204F5FE7000EB8200C160C9
:100AE000C5EBC50204F5FE7000EB82004161681C95
:100AF000C5B26068A842D1D8282204F11001684626
:100B0000FFF72BFC94E80F0001F0EEFE20B102206D
:100B100084F8BD0301205CE7002084F83800012040
:100B200084F8BD03606A012802D12046FFF738FF30
:100B3000206801F0C9FE00204BE7000010B588B026
:100B40000446142103A8FFF721FC2068B0F1A04F50
:100B500046D100BF2348006840F0010021490860E9
:100B60000846006800F00100029000BF00BF4FF48B
:100B7000E850039002200490002005900320069086
:100B80000A20079003A91848FFF73CFD4FF40070B6
:100B9000039000200490059003A91348FFF732FD4D
:100BA00000BF1048001D006840F080000D49091D7D
:100BB00008600846006800F08000029000BF00BF97
:100BC00008481430006840F4804006491431086039
:100BD0000846006800F48040019000BF00BF00BFDD
:100BE00008B010BD303802400000024038B5002483
:100BF00000BF2048006840F080501E490860084649
:100C0000006800F08050009000BF00BF1A480068E4
:100C100040F4803018490860FFF706FE044607E0FC
:100C2000FFF702FE001BB0F57A7F01D9032038BD23
:100C30001148406800F48030B0F5803FF0D10E4894
:100C4000006840F400300C490860FFF7EDFD0446F1
:100C500007E0FFF7E9FD001BB0F57A7F01D903201B
:100C6000E5E70548406800F40030B0F5003FF0D1FA
:100C70000020DCE740380240007000400348006874
:100C800040F4807001490860704700000070004027
:100C90002DE9F8430446002600250027A846A9466A
:100CA000207800F0010088B100BFFE48006820F401
:100CB0000000FC49086008460068616B0843F94978
:100CC000086000BF606B08B94FF00108206800F4AD
:100CD0000020B0F5002F13D1F2488430006820F4D2
:100CE0004010E16B0843EF4984310860E06BB0F5D8
:100CF000801F01D14FF00108E06B08B94FF00109E6
:100D0000206800F48010B0F5801F13D1E5488430CE
:100D1000006820F44000216C0843E24984310860F7
:100D2000206CB0F5800F01D14FF00108206C08B99C
:100D30004FF00109206800F08070B0F1807F01D190
:100D40004FF00108207800F02000202870D100BF6B
:100D5000D4483830006840F08050D24938310860BB
:100D60000846006800F08050009000BF00BFCE48E9
:100D7000006840F48070CC490860FFF755FD0646D6
:100D800007E0FFF751FD801B642802D90320BDE86E
:100D9000F883C548006800F480700028F1D0C1488D
:100DA0006830006800F4407585B3208E00F4407010
:100DB000A8422BD0BB486830006820F44075B94881
:100DC0006830006840F48030B649683108600846F1
:100DD000006820F48030086008460560006800F074
:100DE000010098B1FFF720FD064608E0FFF71CFD63
:100DF000801B41F28831884201D90320C7E7A94806
:100E000068300068C0F340000028EFD000BF208E9B
:100E100000F44070B0F5407F0BD1A248006820F488
:100E2000F810A24A216B114008439E49086006E071
:100E300010E09C48006820F4F8109A49086099482E
:100E400068300068218EC1F30B0108439549683171
:100E5000086000BF207800F01000102810D100BFFB
:100E600090488430006820F080708E49843108609A
:100E700008460068A16B08438A498431086000BFB6
:100E8000208800F48040B0F5804F09D18548883033
:100E9000006820F44030616E084382498831086060
:100EA000208800F40040B0F5004F09D17D4888301B
:100EB000006820F44020A16E08437A498831086018
:100EC000206800F48030B0F5803F09D17548883043
:100ED000006820F44010E16E0843724988310860D0
:100EE000206800F40030B0F5003F09D16D4888302B
:100EF000006820F44000216F08436A498831086087
:100F0000207800F04000402809D166488830006809
:100F100020F00300616C0843624988310860207842
:100F200000F08000802809D15E488830006820F0F9
:100F30000C00A16C08435B4988310860208800F4EC
:100F40008070B0F5807F09D156488830006820F065
:100F50003000E16C0843534988310860208800F470
:100F60000070B0F5007F09D14E488830006820F04D
:100F7000C000216D08434B4988310860208800F487
:100F80008060B0F5806F09D146488830006820F451
:100F90004070616D0843434988310860208800F43F
:100FA0000060B0F5006F09D13E488830006820F439
:100FB0004060A16D08433B4988310860208800F4F7
:100FC0008050B0F5805F09D136488830006820F441
:100FD0004050E16D0843334988310860208800F4AF
:100FE0000050B0F5005F09D12E488830006820F429
:100FF0004040216E08432B4988310860206800F486
:101000008000B0F5800F09D126488830006820F0B4
:101010008060A16F0843234988310860206800F48C
:101020000010B0F5001F0FD11E488830006820F076
:101030000060E16F08431B4988310860E06FB0F140
:10104000006F01D14FF00109207800F00800082856
:1010500001D14FF00109206800F48020B0F5802F05
:1010600009D110488830006820F04070616F084353
:101070000C4988310860206800F40000B0F5000FCA
:101080000AD108488830006820F08050D4F88010D9
:101090000843044988310860206800F08060B0F19E
:1010A000806F05E00838024000700040FFFCFF0F31
:1010B00008D1CC48006820F00050D4F884100843D0
:1010C000C8490860206800F00060B0F1006F0AD1E4
:1010D000C448001F006820F00070D4F8881008434E
:1010E000C049091F0860206800F08050B0F1805F9F
:1010F0000AD1BC48001F006820F08060D4F88C1032
:101100000843B849091F0860B8F1010F03D02068EF
:10111000B0F1007F7ED1B3489038006820F0806045
:10112000B04990390860FFF77FFB064606E0FFF7FD
:101130007BFB801B642801D9032028E6A94890384E
:101140000068C0F3C0600028F1D1207800F00100F1
:10115000B8B1606BA8B9A3480C380068C0F301456A
:10116000A0480C380068C0F303676068800140EA5B
:10117000054040EA0761207A41EA007099490C393C
:101180000860206800F40020B0F5002F03D1E06B68
:10119000B0F5801F09D0206800F48010B0F5801FE2
:1011A00024D1206CB0F5800F20D18E480C38006817
:1011B000C0F301458B480C380068C0F302776068C3
:1011C000800140EA0541207B41EA006040EA077067
:1011D00084490C3908608348001F006820F01F0014
:1011E000616A491E08437F49091F0860206800F0B2
:1011F0008070B0F1807F17D17A480C380068C0F356
:10120000036578480C380068C0F302776068810194
:10121000208A00E036E041EA004040EA056040EA0A
:10122000077070490C390860206800F00070B0F158
:10123000007F0DD160688101208A41EA0041207B56
:1012400041EA0061207A41EA007066490C39086081
:1012500064489038006840F08060624990390860C6
:10126000FFF7E2FA064606E0FFF7DEFA801B642885
:1012700001D903208BE55B4890380068C0F3C0605B
:101280000028F1D0B9F1010F7ED15648903800689E
:1012900020F08050534990390860FFF7C5FA0646A0
:1012A00006E0FFF7C1FA801B642801D903206EE530
:1012B0004C4890380068C0F340700028F1D1206895
:1012C00000F40020B0F5002F01D1E06B38B12068A8
:1012D00000F48010B0F5801F22D1206C00BB414883
:1012E00008380068C0F301453E4808380068C0F37C
:1012F00002776069800140EA0541207E41EA006092
:1013000040EA0770374908390860081D006820F472
:10131000F851A06A401E41EA00203249091F0860C6
:10132000206800F40010B0F5001F19D1E06FB0F193
:10133000006F15D12B4808380068C0F303652948B1
:1013400008380068C0F3027760698101208C41EAA7
:10135000004040EA056040EA077022490839086009
:10136000207800F00800082820D11E4808380068BE
:10137000C0F303651B4808380068C0F30147606983
:10138000800140EA074000E02AE040EA0561207F52
:1013900041EA0070134908390860081D006820F40C
:1013A0004030E16A08430F49091F08600D48903832
:1013B000006840F080500B4990390860FFF734FA1C
:1013C000064606E0FFF730FA801B642801D90320A7
:1013D000DDE4044890380068C0F340700028F1D084
:1013E0000020D4E49038024070B504460D46002633
:1013F0000CB9012070BD5C48006800F00F00A842E5
:101400000ED25948006820F00F0028435649086062
:101410000846006800F00F00A84201D00120E9E76B
:10142000207800F0020002281DD1207800F004008E
:10143000042805D14D48006840F4E0504B4908604D
:10144000207800F00800082805D14848006840F4DA
:101450006040464908604548006820F0F000A168F7
:10146000084342490860207800F0010090B36068AA
:10147000012807D13D4808380068C0F34040A0B9B2
:101480000120B7E76068022807D1384808380068AB
:10149000C0F3406048B90120ACE734480838006820
:1014A000C0F3400008B90120A4E73048006820F0EC
:1014B0000300616808432D490860FFF7B5F9064647
:1014C00009E0FFF7B1F9801B41F28831884202D967
:1014D00003208FE707E02548006800F00C006168F2
:1014E000B0EB810FEDD12048006800F00F00A8425A
:1014F0000ED91D48006820F00F0028431A490860E3
:101500000846006800F00F00A84201D0012071E7F2
:10151000207800F00400042807D11448006820F463
:10152000E050E168084311490860207800F00800A5
:10153000082808D10D48006820F46040216940EA7D
:10154000C1000A49086000F019F808490968C1F3A8
:101550000311074A515CC840064908600648006804
:10156000FFF780F9002045E7003C024008380240C0
:10157000983600083C000020340000202DE9F04798
:10158000002400250026A1462548006800F00C0034
:1015900020B1042805D008283AD105E0DFF884906E
:1015A00039E0DFF8849036E01D48001F006800F045
:1015B0003F041B48001F006800F4800078B11A48FF
:1015C0001749091F0968C1F38811A0FB0170014682
:1015D000224600233846FEF78FFE05460EE01148EE
:1015E0000F49091F0968C1F38811A0FB017001466A
:1015F000224600233846FEF77FFE05460848001FB6
:101600000068C0F30140401C4600B5FBF6F902E05B
:10161000DFF8109000BF00BF4846BDE8F08700002B
:10162000083802400024F40000127A00F8B504469D
:1016300000270CB90120F8BD207800F00100002837
:1016400071D0F948006800F00C0004280DD0F6486D
:10165000006800F00C00082813D1F348001F006850
:1016600000F48000B0F5800F0BD1EF480838006817
:10167000C0F34040002869D06068002866D101208E
:10168000D9E700BF6068B0F5803F08D1E648083868
:10169000006840F48030E449083908602EE0606852
:1016A00068B9E1480838006820F48030DE4908391C
:1016B00008600846006820F4802008601EE060682A
:1016C000B0F5A02F0DD1D8480838006840F480202C
:1016D000D549083908600846006840F48030086041
:1016E0000CE0D1480838006820F48030CE49083931
:1016F00008600846006820F48020086000BF606829
:1017000090B1FFF791F8054606E0FFF78DF8401B12
:10171000642801D903208EE7C34808380068C0F365
:1017200040400028F1D011E0FFF77EF8054606E0C2
:10173000FFF77AF8401B642801D903207BE7BA48F9
:1017400008380068C0F340400028F1D1207800F04C
:101750000200022869D1B448006800F00C0058B1BA
:10176000B148006800F00C0008281CD1AE48001FEA
:10177000006800F48000B0B9AB4808380068C0F3D6
:10178000400020B1E068012801D0012053E7A648BD
:101790000838006820F0F800216940EAC100A24939
:1017A0000839086041E0E06828B39F4808380068BD
:1017B00040F001009C4908390860FFF735F80546FC
:1017C00006E0FFF731F8401B022801D9032032E779
:1017D000954808380068C0F340000028F1D09248CE
:1017E0000838006820F0F800216940EAC1008E49FD
:1017F0000839086019E08C480838006820F00100BA
:10180000894908390860FFF70FF8054606E0FFF739
:101810000BF8401B022801D903200CE78248083846
:101820000068C0F340000028F1D1207800F00800E3
:10183000082836D16069D0B17B486C30006840F030
:10184000010079496C310860FEF7EEFF054606E0BD
:10185000FEF7EAFF401B022801D90320EBE672489D
:101860006C300068C0F340000028F1D019E06E48E9
:101870006C30006820F001006B496C310860FEF7A5
:10188000D3FF054606E0FEF7CFFF401B022801D933
:101890000320D0E664486C300068C0F340000028A4
:1018A000F1D1207800F00400042874D15E4838306B
:1018B000006800F0805080B900BF5B483830006895
:1018C00040F080505849383108600846006800F000
:1018D0008050009000BF00BF01275448006800F40A
:1018E0008070B0B95148006840F480704F4908607A
:1018F000FEF79AFF054606E0FEF796FF401B6428B8
:1019000001D9032097E64948006800F48070002858
:10191000F2D000BFA068012808D1434868300068B1
:1019200040F001004049683108602DE0A06868B9C6
:101930003D486830006820F001003B49683108608C
:101940000846006820F0040008601DE0A068052833
:101950000DD135486830006840F0040032496831E4
:1019600008600846006840F0010008600CE02E485E
:101970006830006820F001002B4968310860084693
:10198000006820F00400086000BFA068A8B1FEF75E
:101990004BFF054609E02EE0FEF746FF401B41F2F3
:1019A0008831884201D9032045E61F486830006825
:1019B000C0F340000028EFD013E0FEF735FF0546E6
:1019C00008E0FEF731FF401B41F28831884201D91F
:1019D000032030E6144868300068C0F34000002857
:1019E000EFD1012F07D110483830006820F0805027
:1019F0000D4938310860A069002854D00A480068B1
:101A000000F00C00082867D0A06902284CD10648D5
:101A10000838006820F08070034908390860FEF734
:101A200003FF05460BE0000008380240007000404C
:101A3000FEF7FAFE401B022801D90320FBE53F48D0
:101A40000068C0F340600028F2D1D4E907010843E0
:101A5000616A40EA81110122A06AC2EB500041EAAA
:101A600000412C20005D41EA00613020005D41EA28
:101A700000703249091D0860081F006840F080703E
:101A8000091F0860FEF7D0FE054606E0FEF7CCFE13
:101A9000401B022801D90320CDE528480068C0F387
:101AA00040600028F2D047E02448006820F08070B1
:101AB00022490860FEF7B8FE054606E0FEF7B4FED0
:101AC000401B022801D90320B5E51C480068C0F37B
:101AD00040600028F2D12FE01848001D0668A06978
:101AE000012827D006F48001E069814222D106F066
:101AF0003F01206A81421DD147F6C0703040616AC3
:101B0000B0EB811F16D106F440310122A06AC2EB6E
:101B10005000B1EB004F0DD106F070612C20005D3C
:101B2000B1EB006F06D106F0E0413020005DB1EB73
:101B3000007F01D001207EE500207CE500380240D6
:101B400070B504462546681EB0F1807F01D30120A0
:101B50000FE0681E4FF0E02148610F214FF0FF3089
:101B600001F042F800204FF0E02188610720086171
:101B7000002070BD30B502460B4600BF92F83C0015
:101B8000012801D1022030BD012082F83C0000BFB5
:101B9000022082F83D001068416810688468214D79
:101BA0001068A84203D0204D1068A84203D121F448
:101BB00070015868014321F07001186801431068F2
:101BC0004160184D1068A8421BD01068B0F1804FDA
:101BD00017D0164D1068A84213D0154D1068A842B2
:101BE0000FD0144D1068A8420BD00F4D1068A842BA
:101BF00007D0114D1068A84203D0104D1068A842BC
:101C000005D124F0800498680443106884600120A2
:101C100082F83D0000BF002082F83C0000BF00BFFA
:101C2000B1E7000000000140000401400004004052
:101C300000080040000C0040004001400018004037
:101C400010B504460CB9012010BD94F83D0028B928
:101C5000002084F83C00204600F00CF8022084F8B4
:101C60003D00211D206800F0DDFB012084F83D00CF
:101C70000020E9E708B5094A016891420DD100BF8B
:101C80000749096841F00201054A116011460968D7
:101C900001F00201009100BF00BF08BD0004004038
:101CA000403802402DE9F04104460D4600BF94F84B
:101CB0003C00012802D10220BDE8F081012084F817
:101CC0003C0000BF022084F83D0020688668374849
:101CD000064026F47F46206886602868502833D066
:101CE0000CDC202850D004DC00284BD0102851D127
:101CF00049E0302849D040284CD139E060282DD027
:101D0000702807D0B0F5805F03D0B0F5005F41D1F7
:101D10000DE040E0D5E902136A68206800F0FFFB9F
:101D20002068866846F077062068866033E0D5E94B
:101D300002136A68206800F0F2FB2068806840F4B3
:101D400080402168886026E0EA686968206800F0C1
:101D500031FD5021206800F0EDFB1CE0EA68696865
:101D6000206800F03AFD6021206800F0E3FB12E0FB
:101D7000EA686968206800F01DFD4021206800F0D5
:101D8000D9FB08E000BF00BF00BF2968206800F051
:101D9000D1FB00E000BF00BF012084F83D0000BF80
:101DA000002084F83C0000BF00BF85E788FFFEFFED
:101DB00010B586B00446142101A8FEF7E7FA1D49C4
:101DC0002068884234D100BF1B48006840F0010001
:101DD000194908600846006800F00100009000BF43
:101DE00000BF00BF0846006840F0040008600846D5
:101DF000006800F00400009000BF00BF4020019088
:101E0000022002900020039004900220059001A976
:101E10000A48FEF7F7FB8020019002200290002084
:101E2000039004900220059001A90548FEF7EAFB03
:101E300006B010BD000400403038024000000240EF
:101E40000008024070B504460D46164600BF94F8DF
:101E50003C00012801D1022070BD012084F83C0023
:101E600000BF022084F83D000C2E51D005DC4EB19D
:101E7000042E1ED0082E7AD133E0102E60D0142EFE
:101E8000F9D175E02946206800F05EFB2068806982
:101E900040F00800216888612068806920F0040013
:101EA0002168886120688069296908432168886100
:101EB00077E02946206800F081FB2068806940F4C3
:101EC0000060216888612068806920F48060216852
:101ED000886120688069296940EA01202168886159
:101EE0005FE02946206800F0A9FB2068C06940F047
:101EF00008002168C8612068C06920F004002168DA
:101F0000C8612068C069296908432168C86148E040
:101F10002946206800F0D0FB2068C06940F40060CA
:101F20002168C8612068C06920F480602168C861A8
:101F30002068C069296940EA01202168C86130E051
:101F40002946206800F0E4FB2068406D40F008005E
:101F5000216848652068406D20F0040021684865CC
:101F60002068406D296908432168486519E017E039
:101F70002946206800F0F4FB2068406D40F40060C2
:101F8000216848652068406D20F4806021684865BC
:101F90002068406D296940EA01202168486500E019
:101FA00000BF00BF012084F83D0000BF002084F87E
:101FB0003C0000BF00BF4FE710B504460CB901203C
:101FC00010BD94F83D0028B9002084F83C0020465C
:101FD00000F00CF8022084F83D00211D206800F07C
:101FE00021FA012084F83D000020E9E77047000055
:101FF00070B504460E4601223146206800F07EFA94
:1020000011492068884203D010492068884201D1D4
:10201000012000E0002028B12068406C40F400401E
:102020002168486420688068094900EA0105062D96
:1020300008D0B5F5803F05D02068006840F0010069
:1020400021680860002070BD0000014000040140CC
:102050000700010000BFFEE700B587B0142102A809
:10206000FEF794F900BF6748006840F00400654936
:1020700008600846006800F00400019000BF00BF3F
:1020800000BF0846006840F080000860084600680D
:1020900000F08000019000BF00BF00BF084600684C
:1020A00040F0010008600846006800F0010001905F
:1020B00000BF00BF00BF0846006840F00200086093
:1020C0000846006800F00200019000BF00BF00BF9A
:1020D0000846006840F0080008600846006800F004
:1020E0000800019000BF00BF00BF0846006840F034
:1020F000400008600846006800F04000019000BF02
:1021000000BF002244F281013F48FEF787FB002216
:1021100040213E48FEF782FB4FF4005002903C48BD
:1021200003900020049002A93A48FEF76BFA32208F
:1021300002900220039000200490032005900B20C1
:10214000069002A93348FEF75DFA8620029002202D
:10215000039000200490032005900B20069002A914
:102160002D48FEF74FFA44F28100029001200390BF
:1021700000200490059002A92348FEF743FA4FF48B
:10218000005002900220039000200490032005904C
:102190000B20069002A91C48FEF734FA4FF4407059
:1021A0000290022003900020049003200590072055
:1021B000069002A91948FEF725FA40200290012056
:1021C000039000200490059002A91048FEF71AFA27
:1021D0008020029000200390049002A90B48FEF793
:1021E00011FA4FF420500290022003900020049036
:1021F000032005900B20069002A90448FEF702FA7E
:1022000007B000BD30380240000402400018024010
:10221000000011100008024000000240000C0240C3
:1022200000B58FB000200B900C900D900E90089090
:1022300009900A901C2101A8FEF7A8F82348244918
:102240000860D72048600021214881606321C16077
:10225000002101618161FFF7F3FC08B1FEF7BAF9D3
:102260004FF480500B900BA91948FFF71BFD08B1E4
:10227000FEF7B0F91648FFF79FFE08B1FEF7AAF97E
:10228000002008900A9008A91148FFF773FC08B1D4
:10229000FEF7A0F9602001900020029003900590C5
:1022A000002201A90A48FFF7CDFD08B1FEF792F917
:1022B000042201A90648FFF7C5FD08B1FEF78AF917
:1022C0000348FFF775FD0FB000BD0000000400409B
:1022D0008000002010B54FF0A0400D490860062096
:1022E000486002210A48C160002101610221816128
:1022F0000121C1610021016241620121C16200210D
:102300000163FEF761FB08B1FEF764F910BD000040
:10231000C000002000BFFEE700BFFEE710B5FEF7DB
:1023200089FA01F039F8012801D001F019F810BD3F
:1023300000B5B7B034212AA8FEF728F8142125A843
:10234000FEF724F8902101A8FEF720F8FEF796FC8E
:1023500000BF2B48006840F08050294908600846BB
:10236000006800F08050009000BF00BF00BF25480B
:10237000006840F44040234908600846006800F4C3
:102380004040009000BF00BF01202A904FF4A020E1
:102390002B900220309041052AA8C16104210162DE
:1023A000D8214162022181620921C162FFF73EF911
:1023B00008B1FEF70FF9FEF719FC08B1FEF70AF9AC
:1023C0000F20259002202690002027904FF4A05047
:1023D00028904FF480502990072125A8FFF704F892
:1023E00008B1FEF7F7F84FF400100190002020909C
:1023F00001A8FEF74DFC08B1FEF7ECF837B000BDC0
:1024000040380240007000400548006840F4700009
:10241000034908604FF00060014980390860704747
:1024200088ED00E010B50268294B98420ED0B0F15B
:10243000804F0BD0274B984208D0274B984205D0AD
:10244000264B984202D0264B984203D122F07002CC
:102450004B681A431E4B984220D0B0F1804F1DD0DC
:102460001C4B98421AD01C4B984217D01B4B9842D9
:1024700014D01B4B984211D01A4B98420ED01A4BD5
:1024800098420BD0194B984208D0194B984205D06E
:10249000184B984202D0184B984203D122F4407254
:1024A000CB681A4322F080034C6943EA04020260BD
:1024B0008B68C3620B688362054B984202D0084B5D
:1024C000984201D10B6903630123436110BD0000F1
:1024D000000001400004004000080040000C0040E3
:1024E0000004014000400140004401400048014018
:1024F00000180040001C00400020004030B501F0F2
:102500001F05012404FA05F3046A9C430462046A6B
:1025100001F01F0502FA05F52C43046230BD30B509
:102520000C46816821F47F4142EA03252543294373
:10253000816030BD0A46816821F0700142F00703D6
:10254000194381607047000030B5056A25F0010528
:102550000562026A43688469154D2C4024F0030427
:102560000D682C4322F002028D682A43114DA842C7
:1025700000D103E0104DA84206D100BF22F00802AE
:10258000CD682A4322F004020A4DA84202D00A4D27
:10259000A84207D123F4807323F400734D692B43C1
:1025A0008D692B43436084614D684563026230BD91
:1025B0008FFFFEFF000001400004014030B5056AB6
:1025C00025F010050562026A43688469184D2C40A5
:1025D00024F440740D6844EA052422F020028D683A
:1025E00042EA0512134DA84200D103E0124DA84261
:1025F00007D100BF22F08002CD6842EA051222F026
:1026000040020C4DA84202D00B4DA84209D123F440
:10261000806323F400634D6943EA85038D6943EACF
:102620008503436084614D688563026230BD0000AC
:10263000FF8FFFFE000001400004014030B5056A35
:1026400025F480750562026A4368C469174D2C4001
:1026500024F003040D682C4322F400728D6842EAD2
:102660000522134DA84200D103E0124DA84207D124
:1026700000BF22F40062CD6842EA052222F48062A3
:102680000B4DA84202D00B4DA84209D123F4805330
:1026900023F400534D6943EA05138D6943EA05139A
:1026A0004360C4614D68C563026230BD8FFFFEFFA9
:1026B000000001400004014030B5056A25F4805552
:1026C0000562036A4468C2690E4D2A4022F44072D2
:1026D0000D6842EA052223F400538D6843EA05336E
:1026E000094DA84202D0094DA84204D124F48044E7
:1026F0004D6944EA85144460C2614D680564036213
:1027000030BD0000FF8FFFFE0000014000040140CB
:1027100030B5056A25F480350562026A4368446D68
:102720000C4D2C400D682C4322F400320D8942EAF6
:102730000542094DA84202D0084DA84204D123F415
:1027400080334D6943EA0523436044654D688565E0
:10275000026230BD8FFFFEFF000001400004014017
:1027600030B5056A25F480150562026A4368446D38
:102770000D4D2C400D6844EA052422F400120D8909
:1027800042EA0552094DA84202D0094DA84204D19F
:1027900023F480234D6943EA8523436044654D68F3
:1027A000C565026230BD0000FF8FFFFE00000140E2
:1027B0000004014030B50B461446026A056A25F054
:1027C00001050562816921F0F00141EA041122F05E
:1027D0000A021A438161026230BD30B50B461446CD
:1027E000056A25F0100505628169026A21F47041CD
:1027F00041EA043122F0A00242EA0312816102623E
:1028000030BD00000FB470B504460A98012817D1F6
:10281000A06B20F48030A063E06817490840E060B6
:10282000E06820F44010E0601198012803D1E068CE
:1028300040F48010E060204600F020F805460BE0F0
:10284000E06840F04000E060204600F017F80546E0
:10285000A06B40F48030A0630898012807D1A068DD
:1028600040F00600A060A06840F02000A06028466C
:1028700070BC5DF814FB0000BFFFBDFF01460022E5
:1028800000BF501C02460F4B984201D903207047ED
:10289000086900F000400028F3D00022086940F0E9
:1028A0000100086100BF501C0246064B984201D946
:1028B0000320ECE7086900F001000028F3D100BF15
:1028C000E5E70000400D030070B50446254640F6DC
:1028D0000400405940F0020140F604004151032039
:1028E000FDF77CFE002070BD0FB4F0B50646002752
:1028F0003546002405E0002106F5827040F82410DA
:10290000641C0F2CF7D31098A0B940F6040040596E
:1029100040F0020140F604004151B06B20F4001079
:10292000B063306840F040003060306840F08000B4
:10293000306003E0B06B40F40010B0630020C5F8D5
:10294000000ED5F80008C5F800080B9801280BD137
:10295000089820B90021304600F013F917E0012152
:10296000304600F00EF912E00B9803280BD10898BE
:1029700020B90021304600F004F908E0012130467A
:1029800000F0FFF803E00321304600F0FAF81021D0
:10299000304600F0C3F800B10127304600F0A8F837
:1029A00000B1012700214FF401604151001D415148
:1029B00040F61C00415100242EE005F5106000EBAC
:1029C0004410006800F00040B0F1004F10D13CB955
:1029D0004FF0006105F5106000EB441001600DE060
:1029E0004FF0904105F5106000EB4410016005E0E8
:1029F000002105F5106000EB44100160002105F591
:102A0000106000EB441001614FF67F3105F5106056
:102A100000EB44108160641C0698A042CDD80024CD
:102A20002EE005F5306000EB4410006800F0004037
:102A3000B0F1004F10D13CB94FF0006105F53060A6
:102A400000EB441001600DE04FF0904105F530605F
:102A500000EB4410016005E0002105F5306000EB5B
:102A600044100160002105F5306000EB4410016165
:102A70004FF67F3105F5306000EB44108160641C37
:102A80000698A042CDD84FF40160405920F48071DF
:102A90004FF4016041510020B0616FF080407061DF
:102AA000099818B9B06940F01000B061B0690A49DE
:102AB0000843B0610C9818B1B06940F00800B061EB
:102AC0001098012803D1B06904490843B061384621
:102AD000F0BC5DF814FB000000383C8004000040AE
:102AE0000146886820F001008860002070470000DF
:102AF000014600221020086100BF501C0246064B10
:102B0000984201D903207047086900F0100010288E
:102B1000F3D00020F7E70000400D030010B5024697
:102B20000023202040EA8110106100BF581C03469A
:102B3000054CA04201D9032010BD106900F020000F
:102B40002028F3D00020F7E7400D030070B50446BD
:102B50000D46E06820F0C040E060012D04D1E0683F
:102B600040F00050E06007E025B9E06840F08040A8
:102B7000E06001E0012070BD3220FDF72FFD002054
:102B8000F9E702461346D3F800080843C3F80008E3
:102B90000020704700BFFEE713B505490198B1EB6F
:102BA000400F03D1009808B901201CBD0020FCE7AC
:102BB0000000E0FF13B5DDE900200AB1012200E0CA
:102BC000002240EA020121F00040024A101AC00F20
:102BD0001CBD00000000F07F02480068C0F3022026
:102BE000704700000CED00E010B5002804DB0A0778
:102BF000130E054A135406E00A07140E034A00F0A8
:102C00000F031B1FD45410BD00E400E018ED00E0DA
:102C10002DED020B9FED340BDDE90010C0F30A52DD
:102C20009FED331BA2F2FF32142A2DDA9DED002B0B
:102C30009FED2D0B002A32EE000B10DAB4EEC01B14
:102C4000F1EE10FA49D20028A4BF0020014644DA70
:102C500020F000420A4318BF27483ED012E0274B1D
:102C6000D34000EA030C5CEA010C17D0B4EEC01BA1
:102C7000F1EE10FA31D2002803DA4FF48011D1407E
:102C800008449843002128E0332A07DCA2F114030A
:102C90004FF0FF3C2CFA03F3194203D19DED000BDA
:102CA00002B070479DED002B30EE420BB4EEC01B1E
:102CB000F1EE10FA11D200280EDA142A08BF401CD7
:102CC0000AD0C2F134024FF0010C0CFA02F20A44AD
:102CD0008A4238BF401C11469943CDE900109DED52
:102CE000000B02B0704700009C7500883CE4377E02
:102CF00000000000000000000000F0BFFFFF0F0018
:102D000010B52DED040B86B09DED060B10EE101ADC
:102D100010EE900A8DED000B002918BF0121084329
:102D200020F00040C0F17F6000F1E040C00F21D1F1
:102D30009DED080B10EE101A10EE900A8DED000BB1
:102D4000002918BF0121084320F00040C0F17F6036
:102D500000F1E040C00F0DD127490798B1EB400FBB
:102D600004BF069800283ED00998400004BF089888
:102D7000002838D09DED080B53EC102B9DED060B71
:102D800051EC100BFDF770FBCDE902019DED020B3C
:102D900040F2FF7110EE900A8DED000B31EA1050F9
:102DA0001DD00798039900F0004001F000418842CF
:102DB00015D09DED080B8DED040B9DED020B8DEDF7
:102DC000000B10EE900A059961F31E0005909DED31
:102DD000040B9DED021B31EE400B8DED020B9DEDC2
:102DE000020B0AB010BD012000F066F80AB0BDE881
:102DF000104000F045B800000000E0FF00000000B7
:102E000010B52DED020B84B09DED040B51EC100BB1
:102E1000FDF7E6FA41EC100B9DED041B05989FEDC4
:102E2000142B31EE401B9FED143B10F0004F07D0E8
:102E3000B4EEC31BF1EE10FAC8BF30EE020B06E091
:102E4000B4EEC31BF1EE10FA38BF30EE420B8DED3D
:102E5000020B9DED040B8DED000B10EE900A039913
:102E600061F31E0003909DED020B06B010BD000043
:102E7000000000000000F03F000000000000000023
:102E80009FED031B81EE010B704700000000000066
:102E9000000000000000000002E008C8121F08C186
:102EA000002AFAD170477047002001E001C1121FCB
:102EB000002AFBD1704700000149086070470000FC
:102EC0007C00002070B50546581E00EB800002EB28
:102ED000C00090ED001BB0EE410B002400201AE072
:102EE0005E1E06EB860602EBC60606EBC00696EDF6
:102EF000001BB4EEC01BF1EE10FA0BDD5E1E06EBFC
:102F0000860602EBC60606EBC00696ED001BB0EE89
:102F1000410B0446401C8842E2DB204670BD0000A5
:102F20002DE9F04186B005460E4614461F46DDF8F1
:102F300030801422134901A8FDF70FFA94ED001B0D
:102F400001A850F8250000EE100AB8EEC00BB6EE4E
:102F5000002B02EE001B84ED001B94ED000BB0EE85
:102F6000401B00EE106AB8EEC00B00F035F8387068
:102F7000E9B2387800F008F888ED000B06B0BDE83B
:102F8000F08100006835000830B58DB005460C466C
:102F90001C22104906A8FDF7E0F914220D491C3146
:102FA00001A8FDF7DAF9681E06A951F8200000EE25
:102FB000100AB8EEC01B01A850F8240000EE100A59
:102FC000B8EEC02BB6EE003BB0EE410B03EE020BA9
:102FD0000DB030BD0835000870B52DED088BB0EE92
:102FE000408BB0EE419B38EE490BB0EE40ABB2EEF9
:102FF0000E0BB4EEC0ABF1EE10FA01DB042435E0A9
:1030000039EE480BB2EE0E1BB4EEC10BF1EE10FA26
:1030100001DB05242AE0B1EE041BB0EE4A0B00F000
:10302000C7F8B0EE40BBFFF7EBFEB1EE041B30EE8D
:10303000010BBDEEC00B10EE105AB1EE040B8AEE80
:10304000001BB0EE41BBB0EE4B0BFFF7D9FEB0EE6C
:10305000081B30EE010BBDEEC00B10EE100A401E37
:10306000092101FB0050401E02490C5C2046BDECCA
:10307000088B70BD38350008CEB0FDF7E7FBFFF7D1
:1030800057F9FEF7E9FFFFF725F9FFF7C9F8002127
:103090002848FEF7ADFF04212648FEF7A9FF0727C1
:1030A0004FF005084FF48C72234908A8FDF755F935
:1030B000022400BF00BF1B25B3EE040B8DED020BF5
:1030C00002AE00BF4FF0000904A807AB3246294604
:1030D00000902046FFF724FF0A20164909688863FC
:1030E00026E01B25B3EE000B8DED020B96ED000BD9
:1030F000B0EE401B00EE105AB8EEC00BFFF76CFFAD
:1031000006909DF81800079011E09DF8183008AA65
:1031100041463846FFF7D6FEC4B204A806AB324695
:103120002946009060B2FFF7FBFE09F10109ECE7C8
:10313000D7E7000080000020803500080A490968B0
:10314000096809B9012100E0002121B14FF0FF31E8
:10315000064A116006E004490968C968C868034A5C
:10316000416811607047000044000020700000209A
:1031700010B52DED028BB0EE408B51EC180BFFF724
:103180000BFD18B10120BDEC028B10BD0020FAE749
:1031900010B52DED028BB0EE408B51EC180BFFF704
:1031A00009FD18B10120BDEC028B10BD0020FAE72B
:1031B00010B52DED088BB0EE409BB0EE418BB0EE1C
:1031C000490BFFF7E5FF48B9B0EE480BFFF7E0FF0A
:1031D00020B9B0EE490BFFF7CBFF28B1274890ED9F
:1031E000000BB0EE40BB44E0B0EE480BFFF7C0FF71
:1031F00010B1B0EE49BB3CE0B5EEC08BF1EE10FA79
:103200002FD0B0EE480BFFF7FBFDB4EE480BF1EE0C
:1032100010FA26D089EE080BB0EEC0ABB6EE001B5C
:103220003AEE011BB0EE410BFFF7F2FC3AEE400B19
:10323000B0EEC00B9FED121B2AEE011BB4EEC10BCA
:10324000F1EE10FA04DC9FED100B29EE00BB10E04C
:10325000B0EE481BB0EE490BFFF752FDB0EE40BB9D
:1032600007E0B0EE481BB0EE490BFFF749FDB0EEAA
:1032700040BBB0EE4B0BBDEC088B10BD0000002036
:10328000000000000000B03C000000000000000052
:1032900001460A69D1E901309860D1E9010358601B
:1032A0005068884201D18868506000200861106829
:1032B000401E10601068704742684A6093688B60D7
:1032C000936859609160086103685B1C03607047F4
:1032D0001E48006818B101201D49086034E0002034
:1032E0001B4908601B480068B0FA80F0C0F11F015C
:1032F00001EB8100184A52F8200008B1012000E0DB
:10330000002060B900BF502072B680F31188BFF36F
:103310004F8FBFF36F8F62B600BF00BFFEE701EBB8
:1033200081020D4B03EB820042685268426000F15B
:1033300008024368934202D1426852684260426880
:10334000D268064B1A6000BF70470000780000206A
:103350006400002058000020C40400204000002029
:1033600010B500BF502072B680F31188BFF34F8FA5
:10337000BFF36F8F62B600BF00F01EF818B14FF0B8
:1033800080500449086000BF002080F3118800BF0E
:1033900010BD000004ED00E00549096809B90120ED
:1033A00005E00449096809B9022000E000207047DF
:1033B0005C000020780000202DE9F0414FF000086B
:1033C00045480068002879D144480068451C4348B6
:1033D000056025BB42480068006808B9012000E08C
:1033E000002060B900BF502072B680F31188BFF38F
:1033F0004F8FBFF36F8F62B600BF00BFFEE7384844
:10340000076838480068364908603648076036481B
:103410000068401C34490860FFF790FE00BF334845
:10342000006885423CD300BF2D480068006808B999
:10343000012000E0002020B14FF0FF302B49086050
:103440002DE027480068C068C4686668B54202D2AB
:103450002648066023E0201DFFF71AFFA06A18B176
:1034600004F11800FFF714FF94F82C100120884095
:103470001F49096808431E490860E16A01EB8101A0
:103480001C4A02EB8100211DFFF716FF1A49E06A72
:103490000968C96A8842C7D34FF00108C4E700BF72
:1034A00015480068C06A00EB8000124951F82000FE
:1034B000012801D94FF0010805E0FFE70F48006837
:1034C000401C0E4908600E48006808B14FF0010822
:1034D0004046BDE8F0810000780000205400002044
:1034E00044000020480000206800002070000020F8
:1034F00058000020C404002040000020600000208C
:10350000640000200000000064000000FFFFFFFFD7
:10351000FEFFFFFFFBFFFFFFFBFFFFFFFEFFFFFFC5
:10352000FFFFFFFF0200000001000000000000009C
:10353000010000000200000005050505050000006F
:10354000000606060606000000000707070701023E
:103550000202020000000003030303030000000056
:103560000404040404000000FEFFFFFFFFFFFFFF50
:103570000000000001000000020000000000000048
:103580005BB1BFEC9EBC2940E2E995B20C214640FC
:10359000000000000000694027A089B0E1E1494037
:1035A0000A68226C78224A4098DD938785FA244085
:1035B00021B0726891ED2F405AF5B9DA8A3D274063
:1035C000D42B6519E2B04D40C5FEB27BF27260406B
:1035D00017D9CEF753630CC0014D840D4FAF11C006
:1035E000B459F5B9DA8AE53F12143FC6DCF511C0CB
:1035F0008D976E128338424038F8C264AA60E0BFEB
:10360000B37BF2B0506BFEBF1A51DA1B7C61D2BFA4
:10361000FBCBEEC9C342E93F37894160E5D0C23FE9
:103620005AF5B9DA8AFDF73FF90FE9B7AF0323C0BE
:10363000C58F31772DC122C0E6AE25E4837E22C03E
:10364000166A4DF38EF322C0ABCFD556EC2F05C0D2
:1036500070CE88D2DE803440696FF085C954F7BFE0
:10366000CCEEC9C342ADF8BF1C7C613255B00BC073
:103670000B24287E8C315F409C33A2B437F82E4057
:103680001AC05B204141334036AB3E575B3121408D
:10369000B1506B9A773C32400000000000000000FF
:1036A00001020304060708090000000001020304E8
:1036B000D03600080000002080000000982E00088E
:1036C000503700088000002038090000A82E0008AC
:1036D000000000000000F87F000000000000F07F04
:1036E000000000000000F0FF000000000000F87F74
:1036F000000000000000F07F000000000000F0FF6C
:103700000000000010000000010000000024F40090
:1037100000000000000000000000000000000000A9
:103720000000000000000000000000000000000099
:103730000000000000000000000000000000000089
:103740000000000000000000000000000000000079
:04000005080001F9F5
:00000001FF
